{
  "_format": "hh-sol-artifact-1",
  "contractName": "Product",
  "sourceName": "contracts/Product.sol",
  "abi": [
    {
      "anonymous": false,
      "inputs": [
        {
          "indexed": false,
          "internalType": "address",
          "name": "seller_address",
          "type": "address"
        },
        {
          "indexed": false,
          "internalType": "string",
          "name": "product_code",
          "type": "string"
        },
        {
          "indexed": false,
          "internalType": "string",
          "name": "product_name",
          "type": "string"
        },
        {
          "indexed": false,
          "internalType": "uint256",
          "name": "amount",
          "type": "uint256"
        },
        {
          "indexed": false,
          "internalType": "string",
          "name": "product_description",
          "type": "string"
        },
        {
          "indexed": false,
          "internalType": "uint256",
          "name": "timestamp",
          "type": "uint256"
        },
        {
          "indexed": false,
          "internalType": "string",
          "name": "keyword",
          "type": "string"
        }
      ],
      "name": "add",
      "type": "event"
    },
    {
      "inputs": [
        {
          "internalType": "string",
          "name": "product_code",
          "type": "string"
        },
        {
          "internalType": "string",
          "name": "product_name",
          "type": "string"
        },
        {
          "internalType": "uint256",
          "name": "amount",
          "type": "uint256"
        },
        {
          "internalType": "string",
          "name": "product_description",
          "type": "string"
        },
        {
          "internalType": "string",
          "name": "keyword",
          "type": "string"
        }
      ],
      "name": "addToBlockchain",
      "outputs": [],
      "stateMutability": "nonpayable",
      "type": "function"
    },
    {
      "inputs": [],
      "name": "getAllProducts",
      "outputs": [
        {
          "components": [
            {
              "internalType": "address",
              "name": "seller_address",
              "type": "address"
            },
            {
              "internalType": "string",
              "name": "product_code",
              "type": "string"
            },
            {
              "internalType": "string",
              "name": "product_name",
              "type": "string"
            },
            {
              "internalType": "uint256",
              "name": "amount",
              "type": "uint256"
            },
            {
              "internalType": "string",
              "name": "product_description",
              "type": "string"
            },
            {
              "internalType": "uint256",
              "name": "timestamp",
              "type": "uint256"
            },
            {
              "internalType": "string",
              "name": "keyword",
              "type": "string"
            }
          ],
          "internalType": "struct Product.productStruct[]",
          "name": "",
          "type": "tuple[]"
        }
      ],
      "stateMutability": "view",
      "type": "function"
    },
    {
      "inputs": [],
      "name": "getProductCount",
      "outputs": [
        {
          "internalType": "uint256",
          "name": "",
          "type": "uint256"
        }
      ],
      "stateMutability": "view",
      "type": "function"
    }
  ],
  "bytecode": "0x608060405234801561001057600080fd5b50610cbf806100206000396000f3fe608060405234801561001057600080fd5b50600436106100415760003560e01c806302ee3a52146100465780634a348da914610064578063986c770a14610082575b600080fd5b61004e61009e565b60405161005b91906109ca565b60405180910390f35b61006c6103af565b60405161007991906109ec565b60405180910390f35b61009c60048036038101906100979190610680565b6103b8565b005b60606001805480602002602001604051908101604052809291908181526020016000905b828210156103a657838290600052602060002090600702016040518060e00160405290816000820160009054906101000a900473ffffffffffffffffffffffffffffffffffffffff1673ffffffffffffffffffffffffffffffffffffffff1673ffffffffffffffffffffffffffffffffffffffff16815260200160018201805461014b90610ba2565b80601f016020809104026020016040519081016040528092919081815260200182805461017790610ba2565b80156101c45780601f10610199576101008083540402835291602001916101c4565b820191906000526020600020905b8154815290600101906020018083116101a757829003601f168201915b505050505081526020016002820180546101dd90610ba2565b80601f016020809104026020016040519081016040528092919081815260200182805461020990610ba2565b80156102565780601f1061022b57610100808354040283529160200191610256565b820191906000526020600020905b81548152906001019060200180831161023957829003601f168201915b505050505081526020016003820154815260200160048201805461027990610ba2565b80601f01602080910402602001604051908101604052809291908181526020018280546102a590610ba2565b80156102f25780601f106102c7576101008083540402835291602001916102f2565b820191906000526020600020905b8154815290600101906020018083116102d557829003601f168201915b505050505081526020016005820154815260200160068201805461031590610ba2565b80601f016020809104026020016040519081016040528092919081815260200182805461034190610ba2565b801561038e5780601f106103635761010080835404028352916020019161038e565b820191906000526020600020905b81548152906001019060200180831161037157829003601f168201915b505050505081525050815260200190600101906100c2565b50505050905090565b60008054905090565b60016000808282546103ca9190610ace565b9250508190555060016040518060e001604052803373ffffffffffffffffffffffffffffffffffffffff16815260200187815260200186815260200185815260200184815260200142815260200183815250908060018154018082558091505060019003906000526020600020906007020160009091909190915060008201518160000160006101000a81548173ffffffffffffffffffffffffffffffffffffffff021916908373ffffffffffffffffffffffffffffffffffffffff16021790555060208201518160010190805190602001906104a8929190610560565b5060408201518160020190805190602001906104c5929190610560565b506060820151816003015560808201518160040190805190602001906104ec929190610560565b5060a0820151816005015560c0820151816006019080519060200190610513929190610560565b5050507fcb05bc8a089854c495c1d6441a575678d875301624310f35bf92b0c2bf9a4f1933868686864287604051610551979695949392919061093f565b60405180910390a15050505050565b82805461056c90610ba2565b90600052602060002090601f01602090048101928261058e57600085556105d5565b82601f106105a757805160ff19168380011785556105d5565b828001600101855582156105d5579182015b828111156105d45782518255916020019190600101906105b9565b5b5090506105e291906105e6565b5090565b5b808211156105ff5760008160009055506001016105e7565b5090565b600061061661061184610a38565b610a07565b90508281526020810184848401111561062e57600080fd5b610639848285610b60565b509392505050565b600082601f83011261065257600080fd5b8135610662848260208601610603565b91505092915050565b60008135905061067a81610c72565b92915050565b600080600080600060a0868803121561069857600080fd5b600086013567ffffffffffffffff8111156106b257600080fd5b6106be88828901610641565b955050602086013567ffffffffffffffff8111156106db57600080fd5b6106e788828901610641565b94505060406106f88882890161066b565b935050606086013567ffffffffffffffff81111561071557600080fd5b61072188828901610641565b925050608086013567ffffffffffffffff81111561073e57600080fd5b61074a88828901610641565b9150509295509295909350565b60006107638383610870565b905092915050565b61077481610b24565b82525050565b61078381610b24565b82525050565b600061079482610a78565b61079e8185610a9b565b9350836020820285016107b085610a68565b8060005b858110156107ec57848403895281516107cd8582610757565b94506107d883610a8e565b925060208a019950506001810190506107b4565b50829750879550505050505092915050565b600061080982610a83565b6108138185610aac565b9350610823818560208601610b6f565b61082c81610c61565b840191505092915050565b600061084282610a83565b61084c8185610abd565b935061085c818560208601610b6f565b61086581610c61565b840191505092915050565b600060e083016000830151610888600086018261076b565b50602083015184820360208601526108a082826107fe565b915050604083015184820360408601526108ba82826107fe565b91505060608301516108cf6060860182610921565b50608083015184820360808601526108e782826107fe565b91505060a08301516108fc60a0860182610921565b5060c083015184820360c086015261091482826107fe565b9150508091505092915050565b61092a81610b56565b82525050565b61093981610b56565b82525050565b600060e082019050610954600083018a61077a565b81810360208301526109668189610837565b9050818103604083015261097a8188610837565b90506109896060830187610930565b818103608083015261099b8186610837565b90506109aa60a0830185610930565b81810360c08301526109bc8184610837565b905098975050505050505050565b600060208201905081810360008301526109e48184610789565b905092915050565b6000602082019050610a016000830184610930565b92915050565b6000604051905081810181811067ffffffffffffffff82111715610a2e57610a2d610c32565b5b8060405250919050565b600067ffffffffffffffff821115610a5357610a52610c32565b5b601f19601f8301169050602081019050919050565b6000819050602082019050919050565b600081519050919050565b600081519050919050565b6000602082019050919050565b600082825260208201905092915050565b600082825260208201905092915050565b600082825260208201905092915050565b6000610ad982610b56565b9150610ae483610b56565b9250827fffffffffffffffffffffffffffffffffffffffffffffffffffffffffffffffff03821115610b1957610b18610bd4565b5b828201905092915050565b6000610b2f82610b36565b9050919050565b600073ffffffffffffffffffffffffffffffffffffffff82169050919050565b6000819050919050565b82818337600083830152505050565b60005b83811015610b8d578082015181840152602081019050610b72565b83811115610b9c576000848401525b50505050565b60006002820490506001821680610bba57607f821691505b60208210811415610bce57610bcd610c03565b5b50919050565b7f4e487b7100000000000000000000000000000000000000000000000000000000600052601160045260246000fd5b7f4e487b7100000000000000000000000000000000000000000000000000000000600052602260045260246000fd5b7f4e487b7100000000000000000000000000000000000000000000000000000000600052604160045260246000fd5b6000601f19601f8301169050919050565b610c7b81610b56565b8114610c8657600080fd5b5056fea264697066735822122090f96a34ddf87ef871b617d7f3c99ed941f921b9d2d032045b06c40bc2fe587f64736f6c63430008000033",
  "linkReferences": {},
  "deployedLinkReferences": {}
}